{
  "_format": "hh-sol-artifact-1",
  "contractName": "TikiTrees",
  "sourceName": "contracts/TikiTrees.sol",
  "abi": [
    {
      "inputs": [],
      "stateMutability": "payable",
      "type": "constructor"
    },
    {
      "anonymous": false,
      "inputs": [
        {
          "indexed": true,
          "internalType": "address",
          "name": "owner",
          "type": "address"
        },
        {
          "indexed": true,
          "internalType": "address",
          "name": "approved",
          "type": "address"
        },
        {
          "indexed": true,
          "internalType": "uint256",
          "name": "tokenId",
          "type": "uint256"
        }
      ],
      "name": "Approval",
      "type": "event"
    },
    {
      "anonymous": false,
      "inputs": [
        {
          "indexed": true,
          "internalType": "address",
          "name": "owner",
          "type": "address"
        },
        {
          "indexed": true,
          "internalType": "address",
          "name": "operator",
          "type": "address"
        },
        {
          "indexed": false,
          "internalType": "bool",
          "name": "approved",
          "type": "bool"
        }
      ],
      "name": "ApprovalForAll",
      "type": "event"
    },
    {
      "anonymous": false,
      "inputs": [
        {
          "indexed": true,
          "internalType": "address",
          "name": "previousOwner",
          "type": "address"
        },
        {
          "indexed": true,
          "internalType": "address",
          "name": "newOwner",
          "type": "address"
        }
      ],
      "name": "OwnershipTransferred",
      "type": "event"
    },
    {
      "anonymous": false,
      "inputs": [
        {
          "indexed": true,
          "internalType": "address",
          "name": "from",
          "type": "address"
        },
        {
          "indexed": true,
          "internalType": "address",
          "name": "to",
          "type": "address"
        },
        {
          "indexed": true,
          "internalType": "uint256",
          "name": "tokenId",
          "type": "uint256"
        }
      ],
      "name": "Transfer",
      "type": "event"
    },
    {
      "inputs": [
        {
          "internalType": "address",
          "name": "to",
          "type": "address"
        },
        {
          "internalType": "uint256",
          "name": "tokenId",
          "type": "uint256"
        }
      ],
      "name": "approve",
      "outputs": [],
      "stateMutability": "nonpayable",
      "type": "function"
    },
    {
      "inputs": [
        {
          "internalType": "address",
          "name": "owner",
          "type": "address"
        }
      ],
      "name": "balanceOf",
      "outputs": [
        {
          "internalType": "uint256",
          "name": "",
          "type": "uint256"
        }
      ],
      "stateMutability": "view",
      "type": "function"
    },
    {
      "inputs": [
        {
          "internalType": "uint256",
          "name": "tokenId",
          "type": "uint256"
        }
      ],
      "name": "getApproved",
      "outputs": [
        {
          "internalType": "address",
          "name": "",
          "type": "address"
        }
      ],
      "stateMutability": "view",
      "type": "function"
    },
    {
      "inputs": [
        {
          "internalType": "address",
          "name": "owner",
          "type": "address"
        },
        {
          "internalType": "address",
          "name": "operator",
          "type": "address"
        }
      ],
      "name": "isApprovedForAll",
      "outputs": [
        {
          "internalType": "bool",
          "name": "",
          "type": "bool"
        }
      ],
      "stateMutability": "view",
      "type": "function"
    },
    {
      "inputs": [],
      "name": "isPublicMintEnabled",
      "outputs": [
        {
          "internalType": "bool",
          "name": "",
          "type": "bool"
        }
      ],
      "stateMutability": "view",
      "type": "function"
    },
    {
      "inputs": [
        {
          "internalType": "uint256",
          "name": "quantity_",
          "type": "uint256"
        }
      ],
      "name": "mint",
      "outputs": [],
      "stateMutability": "payable",
      "type": "function"
    },
    {
      "inputs": [],
      "name": "mintPrice",
      "outputs": [
        {
          "internalType": "uint256",
          "name": "",
          "type": "uint256"
        }
      ],
      "stateMutability": "view",
      "type": "function"
    },
    {
      "inputs": [],
      "name": "name",
      "outputs": [
        {
          "internalType": "string",
          "name": "",
          "type": "string"
        }
      ],
      "stateMutability": "view",
      "type": "function"
    },
    {
      "inputs": [],
      "name": "owner",
      "outputs": [
        {
          "internalType": "address",
          "name": "",
          "type": "address"
        }
      ],
      "stateMutability": "view",
      "type": "function"
    },
    {
      "inputs": [
        {
          "internalType": "uint256",
          "name": "tokenId",
          "type": "uint256"
        }
      ],
      "name": "ownerOf",
      "outputs": [
        {
          "internalType": "address",
          "name": "",
          "type": "address"
        }
      ],
      "stateMutability": "view",
      "type": "function"
    },
    {
      "inputs": [],
      "name": "renounceOwnership",
      "outputs": [],
      "stateMutability": "nonpayable",
      "type": "function"
    },
    {
      "inputs": [
        {
          "internalType": "address",
          "name": "to",
          "type": "address"
        }
      ],
      "name": "safeMint",
      "outputs": [],
      "stateMutability": "nonpayable",
      "type": "function"
    },
    {
      "inputs": [
        {
          "internalType": "address",
          "name": "from",
          "type": "address"
        },
        {
          "internalType": "address",
          "name": "to",
          "type": "address"
        },
        {
          "internalType": "uint256",
          "name": "tokenId",
          "type": "uint256"
        }
      ],
      "name": "safeTransferFrom",
      "outputs": [],
      "stateMutability": "nonpayable",
      "type": "function"
    },
    {
      "inputs": [
        {
          "internalType": "address",
          "name": "from",
          "type": "address"
        },
        {
          "internalType": "address",
          "name": "to",
          "type": "address"
        },
        {
          "internalType": "uint256",
          "name": "tokenId",
          "type": "uint256"
        },
        {
          "internalType": "bytes",
          "name": "data",
          "type": "bytes"
        }
      ],
      "name": "safeTransferFrom",
      "outputs": [],
      "stateMutability": "nonpayable",
      "type": "function"
    },
    {
      "inputs": [
        {
          "internalType": "address",
          "name": "operator",
          "type": "address"
        },
        {
          "internalType": "bool",
          "name": "approved",
          "type": "bool"
        }
      ],
      "name": "setApprovalForAll",
      "outputs": [],
      "stateMutability": "nonpayable",
      "type": "function"
    },
    {
      "inputs": [
        {
          "internalType": "string",
          "name": "baseTokenURI_",
          "type": "string"
        }
      ],
      "name": "setBasedTokenUri",
      "outputs": [],
      "stateMutability": "nonpayable",
      "type": "function"
    },
    {
      "inputs": [
        {
          "internalType": "bool",
          "name": "isPublicMintEnabled_",
          "type": "bool"
        }
      ],
      "name": "setIsPublicMintEnabled",
      "outputs": [],
      "stateMutability": "nonpayable",
      "type": "function"
    },
    {
      "inputs": [
        {
          "internalType": "bytes4",
          "name": "interfaceId",
          "type": "bytes4"
        }
      ],
      "name": "supportsInterface",
      "outputs": [
        {
          "internalType": "bool",
          "name": "",
          "type": "bool"
        }
      ],
      "stateMutability": "view",
      "type": "function"
    },
    {
      "inputs": [],
      "name": "symbol",
      "outputs": [
        {
          "internalType": "string",
          "name": "",
          "type": "string"
        }
      ],
      "stateMutability": "view",
      "type": "function"
    },
    {
      "inputs": [
        {
          "internalType": "uint256",
          "name": "tokenId_",
          "type": "uint256"
        }
      ],
      "name": "tokenURI",
      "outputs": [
        {
          "internalType": "string",
          "name": "",
          "type": "string"
        }
      ],
      "stateMutability": "view",
      "type": "function"
    },
    {
      "inputs": [],
      "name": "totalSupply",
      "outputs": [
        {
          "internalType": "uint256",
          "name": "",
          "type": "uint256"
        }
      ],
      "stateMutability": "view",
      "type": "function"
    },
    {
      "inputs": [
        {
          "internalType": "address",
          "name": "from",
          "type": "address"
        },
        {
          "internalType": "address",
          "name": "to",
          "type": "address"
        },
        {
          "internalType": "uint256",
          "name": "tokenId",
          "type": "uint256"
        }
      ],
      "name": "transferFrom",
      "outputs": [],
      "stateMutability": "nonpayable",
      "type": "function"
    },
    {
      "inputs": [
        {
          "internalType": "address",
          "name": "newOwner",
          "type": "address"
        }
      ],
      "name": "transferOwnership",
      "outputs": [],
      "stateMutability": "nonpayable",
      "type": "function"
    },
    {
      "inputs": [
        {
          "internalType": "uint256",
          "name": "amount",
          "type": "uint256"
        }
      ],
      "name": "withdraw",
      "outputs": [],
      "stateMutability": "nonpayable",
      "type": "function"
    },
    {
      "inputs": [],
      "name": "withdrawWallet",
      "outputs": [
        {
          "internalType": "address payable",
          "name": "",
          "type": "address"
        }
      ],
      "stateMutability": "view",
      "type": "function"
    }
  ],
  "bytecode": "0x60806040526040518060400160405280600981526020017f54696b69547265657300000000000000000000000000000000000000000000008152506040518060400160405280600281526020017f545400000000000000000000000000000000000000000000000000000000000081525081600090816200008191906200041a565b5080600190816200009391906200041a565b505050620000b6620000aa620000d260201b60201c565b620000da60201b60201c565b6611c37937e08000600781905550600060088190555062000501565b600033905090565b6000600660009054906101000a900473ffffffffffffffffffffffffffffffffffffffff16905081600660006101000a81548173ffffffffffffffffffffffffffffffffffffffff021916908373ffffffffffffffffffffffffffffffffffffffff1602179055508173ffffffffffffffffffffffffffffffffffffffff168173ffffffffffffffffffffffffffffffffffffffff167f8be0079c531659141344cd1fd0a4f28419497f9722a3daafe3b4186f6b6457e060405160405180910390a35050565b600081519050919050565b7f4e487b7100000000000000000000000000000000000000000000000000000000600052604160045260246000fd5b7f4e487b7100000000000000000000000000000000000000000000000000000000600052602260045260246000fd5b600060028204905060018216806200022257607f821691505b602082108103620002385762000237620001da565b5b50919050565b60008190508160005260206000209050919050565b60006020601f8301049050919050565b600082821b905092915050565b600060088302620002a27fffffffffffffffffffffffffffffffffffffffffffffffffffffffffffffffff8262000263565b620002ae868362000263565b95508019841693508086168417925050509392505050565b6000819050919050565b6000819050919050565b6000620002fb620002f5620002ef84620002c6565b620002d0565b620002c6565b9050919050565b6000819050919050565b6200031783620002da565b6200032f620003268262000302565b84845462000270565b825550505050565b600090565b6200034662000337565b620003538184846200030c565b505050565b5b818110156200037b576200036f6000826200033c565b60018101905062000359565b5050565b601f821115620003ca5762000394816200023e565b6200039f8462000253565b81016020851015620003af578190505b620003c7620003be8562000253565b83018262000358565b50505b505050565b600082821c905092915050565b6000620003ef60001984600802620003cf565b1980831691505092915050565b60006200040a8383620003dc565b9150826002028217905092915050565b6200042582620001a0565b67ffffffffffffffff811115620004415762000440620001ab565b5b6200044d825462000209565b6200045a8282856200037f565b600060209050601f8311600181146200049257600084156200047d578287015190505b620004898582620003fc565b865550620004f9565b601f198416620004a2866200023e565b60005b82811015620004cc57848901518255600182019150602085019450602081019050620004a5565b86831015620004ec5784890151620004e8601f891682620003dc565b8355505b6001600288020188555050505b505050505050565b6136be80620005116000396000f3fe6080604052600436106101665760003560e01c80636352211e116100d157806395d89b411161008a578063b88d4fde11610064578063b88d4fde14610507578063c87b56dd14610530578063e985e9c51461056d578063f2fde38b146105aa57610166565b806395d89b4114610497578063a0712d68146104c2578063a22cb465146104de57610166565b80636352211e146103855780636817c76c146103c257806370a08231146103ed578063715018a61461042a57806385d178f4146104415780638da5cb5b1461046c57610166565b806318160ddd1161012357806318160ddd1461028d5780632373ac22146102b857806323b872dd146102e15780632e1a7d4d1461030a57806340d097c31461033357806342842e0e1461035c57610166565b80630116bc2d1461016b57806301ffc9a71461019657806306fdde03146101d3578063081812fc146101fe578063095ea7b31461023b57806315ac9dfd14610264575b600080fd5b34801561017757600080fd5b506101806105d3565b60405161018d9190612071565b60405180910390f35b3480156101a257600080fd5b506101bd60048036038101906101b891906120f8565b6105e6565b6040516101ca9190612071565b60405180910390f35b3480156101df57600080fd5b506101e86106c8565b6040516101f591906121b5565b60405180910390f35b34801561020a57600080fd5b506102256004803603810190610220919061220d565b61075a565b604051610232919061227b565b60405180910390f35b34801561024757600080fd5b50610262600480360381019061025d91906122c2565b6107a0565b005b34801561027057600080fd5b5061028b60048036038101906102869190612367565b6108b7565b005b34801561029957600080fd5b506102a26108d5565b6040516102af91906123c3565b60405180910390f35b3480156102c457600080fd5b506102df60048036038101906102da919061240a565b6108db565b005b3480156102ed57600080fd5b5061030860048036038101906103039190612437565b610900565b005b34801561031657600080fd5b50610331600480360381019061032c919061220d565b610960565b005b34801561033f57600080fd5b5061035a6004803603810190610355919061248a565b610a1f565b005b34801561036857600080fd5b50610383600480360381019061037e9190612437565b610a60565b005b34801561039157600080fd5b506103ac60048036038101906103a7919061220d565b610a80565b6040516103b9919061227b565b60405180910390f35b3480156103ce57600080fd5b506103d7610b06565b6040516103e491906123c3565b60405180910390f35b3480156103f957600080fd5b50610414600480360381019061040f919061248a565b610b0c565b60405161042191906123c3565b60405180910390f35b34801561043657600080fd5b5061043f610bc3565b005b34801561044d57600080fd5b50610456610bd7565b60405161046391906124d8565b60405180910390f35b34801561047857600080fd5b50610481610bfd565b60405161048e919061227b565b60405180910390f35b3480156104a357600080fd5b506104ac610c27565b6040516104b991906121b5565b60405180910390f35b6104dc60048036038101906104d7919061220d565b610cb9565b005b3480156104ea57600080fd5b50610505600480360381019061050091906124f3565b610daf565b005b34801561051357600080fd5b5061052e60048036038101906105299190612663565b610dc5565b005b34801561053c57600080fd5b506105576004803603810190610552919061220d565b610e27565b60405161056491906121b5565b60405180910390f35b34801561057957600080fd5b50610594600480360381019061058f91906126e6565b610ea3565b6040516105a19190612071565b60405180910390f35b3480156105b657600080fd5b506105d160048036038101906105cc919061248a565b610f37565b005b600960009054906101000a900460ff1681565b60007f80ac58cd000000000000000000000000000000000000000000000000000000007bffffffffffffffffffffffffffffffffffffffffffffffffffffffff1916827bffffffffffffffffffffffffffffffffffffffffffffffffffffffff191614806106b157507f5b5e139f000000000000000000000000000000000000000000000000000000007bffffffffffffffffffffffffffffffffffffffffffffffffffffffff1916827bffffffffffffffffffffffffffffffffffffffffffffffffffffffff1916145b806106c157506106c082610fba565b5b9050919050565b6060600080546106d790612755565b80601f016020809104026020016040519081016040528092919081815260200182805461070390612755565b80156107505780601f1061072557610100808354040283529160200191610750565b820191906000526020600020905b81548152906001019060200180831161073357829003601f168201915b5050505050905090565b600061076582611024565b6004600083815260200190815260200160002060009054906101000a900473ffffffffffffffffffffffffffffffffffffffff169050919050565b60006107ab82610a80565b90508073ffffffffffffffffffffffffffffffffffffffff168373ffffffffffffffffffffffffffffffffffffffff160361081b576040517f08c379a0000000000000000000000000000000000000000000000000000000008152600401610812906127f8565b60405180910390fd5b8073ffffffffffffffffffffffffffffffffffffffff1661083a61106f565b73ffffffffffffffffffffffffffffffffffffffff16148061086957506108688161086361106f565b610ea3565b5b6108a8576040517f08c379a000000000000000000000000000000000000000000000000000000000815260040161089f9061288a565b60405180910390fd5b6108b28383611077565b505050565b6108bf611130565b8181600a91826108d0929190612a61565b505050565b60085481565b6108e3611130565b80600960006101000a81548160ff02191690831515021790555050565b61091161090b61106f565b826111ae565b610950576040517f08c379a000000000000000000000000000000000000000000000000000000000815260040161094790612ba3565b60405180910390fd5b61095b838383611243565b505050565b610968611130565b6000610972610bfd565b73ffffffffffffffffffffffffffffffffffffffff168260405161099590612bf4565b60006040518083038185875af1925050503d80600081146109d2576040519150601f19603f3d011682016040523d82523d6000602084013e6109d7565b606091505b5050905080610a1b576040517f08c379a0000000000000000000000000000000000000000000000000000000008152600401610a1290612c55565b60405180910390fd5b5050565b610a27611130565b60006001600854610a389190612ca4565b9050610a44828261153c565b60086000815480929190610a5790612cd8565b91905055505050565b610a7b83838360405180602001604052806000815250610dc5565b505050565b600080610a8c8361155a565b9050600073ffffffffffffffffffffffffffffffffffffffff168173ffffffffffffffffffffffffffffffffffffffff1603610afd576040517f08c379a0000000000000000000000000000000000000000000000000000000008152600401610af490612d6c565b60405180910390fd5b80915050919050565b60075481565b60008073ffffffffffffffffffffffffffffffffffffffff168273ffffffffffffffffffffffffffffffffffffffff1603610b7c576040517f08c379a0000000000000000000000000000000000000000000000000000000008152600401610b7390612dfe565b60405180910390fd5b600360008373ffffffffffffffffffffffffffffffffffffffff1673ffffffffffffffffffffffffffffffffffffffff168152602001908152602001600020549050919050565b610bcb611130565b610bd56000611597565b565b600b60009054906101000a900473ffffffffffffffffffffffffffffffffffffffff1681565b6000600660009054906101000a900473ffffffffffffffffffffffffffffffffffffffff16905090565b606060018054610c3690612755565b80601f0160208091040260200160405190810160405280929190818152602001828054610c6290612755565b8015610caf5780601f10610c8457610100808354040283529160200191610caf565b820191906000526020600020905b815481529060010190602001808311610c9257829003601f168201915b5050505050905090565b600960009054906101000a900460ff16610d08576040517f08c379a0000000000000000000000000000000000000000000000000000000008152600401610cff90612e6a565b60405180910390fd5b60075481610d169190612e8a565b3414610d57576040517f08c379a0000000000000000000000000000000000000000000000000000000008152600401610d4e90612f18565b60405180910390fd5b60005b81811015610dab5760006001600854610d739190612ca4565b905060086000815480929190610d8890612cd8565b9190505550610d97338261153c565b508080610da390612cd8565b915050610d5a565b5050565b610dc1610dba61106f565b838361165d565b5050565b610dd6610dd061106f565b836111ae565b610e15576040517f08c379a0000000000000000000000000000000000000000000000000000000008152600401610e0c90612ba3565b60405180910390fd5b610e21848484846117c9565b50505050565b6060610e3282611825565b610e71576040517f08c379a0000000000000000000000000000000000000000000000000000000008152600401610e6890612f84565b60405180910390fd5b600a610e7c83611866565b604051602001610e8d9291906130af565b6040516020818303038152906040529050919050565b6000600560008473ffffffffffffffffffffffffffffffffffffffff1673ffffffffffffffffffffffffffffffffffffffff16815260200190815260200160002060008373ffffffffffffffffffffffffffffffffffffffff1673ffffffffffffffffffffffffffffffffffffffff16815260200190815260200160002060009054906101000a900460ff16905092915050565b610f3f611130565b600073ffffffffffffffffffffffffffffffffffffffff168173ffffffffffffffffffffffffffffffffffffffff1603610fae576040517f08c379a0000000000000000000000000000000000000000000000000000000008152600401610fa590613150565b60405180910390fd5b610fb781611597565b50565b60007f01ffc9a7000000000000000000000000000000000000000000000000000000007bffffffffffffffffffffffffffffffffffffffffffffffffffffffff1916827bffffffffffffffffffffffffffffffffffffffffffffffffffffffff1916149050919050565b61102d81611825565b61106c576040517f08c379a000000000000000000000000000000000000000000000000000000000815260040161106390612d6c565b60405180910390fd5b50565b600033905090565b816004600083815260200190815260200160002060006101000a81548173ffffffffffffffffffffffffffffffffffffffff021916908373ffffffffffffffffffffffffffffffffffffffff160217905550808273ffffffffffffffffffffffffffffffffffffffff166110ea83610a80565b73ffffffffffffffffffffffffffffffffffffffff167f8c5be1e5ebec7d5bd14f71427d1e84f3dd0314c0f7b2291e5b200ac8c7c3b92560405160405180910390a45050565b61113861106f565b73ffffffffffffffffffffffffffffffffffffffff16611156610bfd565b73ffffffffffffffffffffffffffffffffffffffff16146111ac576040517f08c379a00000000000000000000000000000000000000000000000000000000081526004016111a3906131bc565b60405180910390fd5b565b6000806111ba83610a80565b90508073ffffffffffffffffffffffffffffffffffffffff168473ffffffffffffffffffffffffffffffffffffffff1614806111fc57506111fb8185610ea3565b5b8061123a57508373ffffffffffffffffffffffffffffffffffffffff166112228461075a565b73ffffffffffffffffffffffffffffffffffffffff16145b91505092915050565b8273ffffffffffffffffffffffffffffffffffffffff1661126382610a80565b73ffffffffffffffffffffffffffffffffffffffff16146112b9576040517f08c379a00000000000000000000000000000000000000000000000000000000081526004016112b09061324e565b60405180910390fd5b600073ffffffffffffffffffffffffffffffffffffffff168273ffffffffffffffffffffffffffffffffffffffff1603611328576040517f08c379a000000000000000000000000000000000000000000000000000000000815260040161131f906132e0565b60405180910390fd5b6113358383836001611934565b8273ffffffffffffffffffffffffffffffffffffffff1661135582610a80565b73ffffffffffffffffffffffffffffffffffffffff16146113ab576040517f08c379a00000000000000000000000000000000000000000000000000000000081526004016113a29061324e565b60405180910390fd5b6004600082815260200190815260200160002060006101000a81549073ffffffffffffffffffffffffffffffffffffffff02191690556001600360008573ffffffffffffffffffffffffffffffffffffffff1673ffffffffffffffffffffffffffffffffffffffff168152602001908152602001600020600082825403925050819055506001600360008473ffffffffffffffffffffffffffffffffffffffff1673ffffffffffffffffffffffffffffffffffffffff16815260200190815260200160002060008282540192505081905550816002600083815260200190815260200160002060006101000a81548173ffffffffffffffffffffffffffffffffffffffff021916908373ffffffffffffffffffffffffffffffffffffffff160217905550808273ffffffffffffffffffffffffffffffffffffffff168473ffffffffffffffffffffffffffffffffffffffff167fddf252ad1be2c89b69c2b068fc378daa952ba7f163c4a11628f55a4df523b3ef60405160405180910390a461153783838360016119b5565b505050565b6115568282604051806020016040528060008152506119bb565b5050565b60006002600083815260200190815260200160002060009054906101000a900473ffffffffffffffffffffffffffffffffffffffff169050919050565b6000600660009054906101000a900473ffffffffffffffffffffffffffffffffffffffff16905081600660006101000a81548173ffffffffffffffffffffffffffffffffffffffff021916908373ffffffffffffffffffffffffffffffffffffffff1602179055508173ffffffffffffffffffffffffffffffffffffffff168173ffffffffffffffffffffffffffffffffffffffff167f8be0079c531659141344cd1fd0a4f28419497f9722a3daafe3b4186f6b6457e060405160405180910390a35050565b8173ffffffffffffffffffffffffffffffffffffffff168373ffffffffffffffffffffffffffffffffffffffff16036116cb576040517f08c379a00000000000000000000000000000000000000000000000000000000081526004016116c29061334c565b60405180910390fd5b80600560008573ffffffffffffffffffffffffffffffffffffffff1673ffffffffffffffffffffffffffffffffffffffff16815260200190815260200160002060008473ffffffffffffffffffffffffffffffffffffffff1673ffffffffffffffffffffffffffffffffffffffff16815260200190815260200160002060006101000a81548160ff0219169083151502179055508173ffffffffffffffffffffffffffffffffffffffff168373ffffffffffffffffffffffffffffffffffffffff167f17307eab39ab6107e8899845ad3d59bd9653f200f220920489ca2b5937696c31836040516117bc9190612071565b60405180910390a3505050565b6117d4848484611243565b6117e084848484611a16565b61181f576040517f08c379a0000000000000000000000000000000000000000000000000000000008152600401611816906133de565b60405180910390fd5b50505050565b60008073ffffffffffffffffffffffffffffffffffffffff166118478361155a565b73ffffffffffffffffffffffffffffffffffffffff1614159050919050565b60606000600161187584611b9d565b01905060008167ffffffffffffffff81111561189457611893612538565b5b6040519080825280601f01601f1916602001820160405280156118c65781602001600182028036833780820191505090505b509050600082602001820190505b600115611929578080600190039150507f3031323334353637383961626364656600000000000000000000000000000000600a86061a8153600a858161191d5761191c6133fe565b5b049450600085036118d4575b819350505050919050565b600073ffffffffffffffffffffffffffffffffffffffff168473ffffffffffffffffffffffffffffffffffffffff16146119a3576040517f08c379a000000000000000000000000000000000000000000000000000000000815260040161199a90613479565b60405180910390fd5b6119af84848484611cf0565b50505050565b50505050565b6119c58383611e16565b6119d26000848484611a16565b611a11576040517f08c379a0000000000000000000000000000000000000000000000000000000008152600401611a08906133de565b60405180910390fd5b505050565b6000611a378473ffffffffffffffffffffffffffffffffffffffff16612033565b15611b90578373ffffffffffffffffffffffffffffffffffffffff1663150b7a02611a6061106f565b8786866040518563ffffffff1660e01b8152600401611a8294939291906134ee565b6020604051808303816000875af1925050508015611abe57506040513d601f19601f82011682018060405250810190611abb919061354f565b60015b611b40573d8060008114611aee576040519150601f19603f3d011682016040523d82523d6000602084013e611af3565b606091505b506000815103611b38576040517f08c379a0000000000000000000000000000000000000000000000000000000008152600401611b2f906133de565b60405180910390fd5b805181602001fd5b63150b7a0260e01b7bffffffffffffffffffffffffffffffffffffffffffffffffffffffff1916817bffffffffffffffffffffffffffffffffffffffffffffffffffffffff191614915050611b95565b600190505b949350505050565b600080600090507a184f03e93ff9f4daa797ed6e38ed64bf6a1f0100000000000000008310611bfb577a184f03e93ff9f4daa797ed6e38ed64bf6a1f0100000000000000008381611bf157611bf06133fe565b5b0492506040810190505b6d04ee2d6d415b85acef81000000008310611c38576d04ee2d6d415b85acef81000000008381611c2e57611c2d6133fe565b5b0492506020810190505b662386f26fc100008310611c6757662386f26fc100008381611c5d57611c5c6133fe565b5b0492506010810190505b6305f5e1008310611c90576305f5e1008381611c8657611c856133fe565b5b0492506008810190505b6127108310611cb5576127108381611cab57611caa6133fe565b5b0492506004810190505b60648310611cd85760648381611cce57611ccd6133fe565b5b0492506002810190505b600a8310611ce7576001810190505b80915050919050565b6001811115611e1057600073ffffffffffffffffffffffffffffffffffffffff168473ffffffffffffffffffffffffffffffffffffffff1614611d845780600360008673ffffffffffffffffffffffffffffffffffffffff1673ffffffffffffffffffffffffffffffffffffffff1681526020019081526020016000206000828254611d7c919061357c565b925050819055505b600073ffffffffffffffffffffffffffffffffffffffff168373ffffffffffffffffffffffffffffffffffffffff1614611e0f5780600360008573ffffffffffffffffffffffffffffffffffffffff1673ffffffffffffffffffffffffffffffffffffffff1681526020019081526020016000206000828254611e079190612ca4565b925050819055505b5b50505050565b600073ffffffffffffffffffffffffffffffffffffffff168273ffffffffffffffffffffffffffffffffffffffff1603611e85576040517f08c379a0000000000000000000000000000000000000000000000000000000008152600401611e7c906135fc565b60405180910390fd5b611e8e81611825565b15611ece576040517f08c379a0000000000000000000000000000000000000000000000000000000008152600401611ec590613668565b60405180910390fd5b611edc600083836001611934565b611ee581611825565b15611f25576040517f08c379a0000000000000000000000000000000000000000000000000000000008152600401611f1c90613668565b60405180910390fd5b6001600360008473ffffffffffffffffffffffffffffffffffffffff1673ffffffffffffffffffffffffffffffffffffffff16815260200190815260200160002060008282540192505081905550816002600083815260200190815260200160002060006101000a81548173ffffffffffffffffffffffffffffffffffffffff021916908373ffffffffffffffffffffffffffffffffffffffff160217905550808273ffffffffffffffffffffffffffffffffffffffff16600073ffffffffffffffffffffffffffffffffffffffff167fddf252ad1be2c89b69c2b068fc378daa952ba7f163c4a11628f55a4df523b3ef60405160405180910390a461202f6000838360016119b5565b5050565b6000808273ffffffffffffffffffffffffffffffffffffffff163b119050919050565b60008115159050919050565b61206b81612056565b82525050565b60006020820190506120866000830184612062565b92915050565b6000604051905090565b600080fd5b600080fd5b60007fffffffff0000000000000000000000000000000000000000000000000000000082169050919050565b6120d5816120a0565b81146120e057600080fd5b50565b6000813590506120f2816120cc565b92915050565b60006020828403121561210e5761210d612096565b5b600061211c848285016120e3565b91505092915050565b600081519050919050565b600082825260208201905092915050565b60005b8381101561215f578082015181840152602081019050612144565b60008484015250505050565b6000601f19601f8301169050919050565b600061218782612125565b6121918185612130565b93506121a1818560208601612141565b6121aa8161216b565b840191505092915050565b600060208201905081810360008301526121cf818461217c565b905092915050565b6000819050919050565b6121ea816121d7565b81146121f557600080fd5b50565b600081359050612207816121e1565b92915050565b60006020828403121561222357612222612096565b5b6000612231848285016121f8565b91505092915050565b600073ffffffffffffffffffffffffffffffffffffffff82169050919050565b60006122658261223a565b9050919050565b6122758161225a565b82525050565b6000602082019050612290600083018461226c565b92915050565b61229f8161225a565b81146122aa57600080fd5b50565b6000813590506122bc81612296565b92915050565b600080604083850312156122d9576122d8612096565b5b60006122e7858286016122ad565b92505060206122f8858286016121f8565b9150509250929050565b600080fd5b600080fd5b600080fd5b60008083601f84011261232757612326612302565b5b8235905067ffffffffffffffff81111561234457612343612307565b5b6020830191508360018202830111156123605761235f61230c565b5b9250929050565b6000806020838503121561237e5761237d612096565b5b600083013567ffffffffffffffff81111561239c5761239b61209b565b5b6123a885828601612311565b92509250509250929050565b6123bd816121d7565b82525050565b60006020820190506123d860008301846123b4565b92915050565b6123e781612056565b81146123f257600080fd5b50565b600081359050612404816123de565b92915050565b6000602082840312156124205761241f612096565b5b600061242e848285016123f5565b91505092915050565b6000806000606084860312156124505761244f612096565b5b600061245e868287016122ad565b935050602061246f868287016122ad565b9250506040612480868287016121f8565b9150509250925092565b6000602082840312156124a05761249f612096565b5b60006124ae848285016122ad565b91505092915050565b60006124c28261223a565b9050919050565b6124d2816124b7565b82525050565b60006020820190506124ed60008301846124c9565b92915050565b6000806040838503121561250a57612509612096565b5b6000612518858286016122ad565b9250506020612529858286016123f5565b9150509250929050565b600080fd5b7f4e487b7100000000000000000000000000000000000000000000000000000000600052604160045260246000fd5b6125708261216b565b810181811067ffffffffffffffff8211171561258f5761258e612538565b5b80604052505050565b60006125a261208c565b90506125ae8282612567565b919050565b600067ffffffffffffffff8211156125ce576125cd612538565b5b6125d78261216b565b9050602081019050919050565b82818337600083830152505050565b6000612606612601846125b3565b612598565b90508281526020810184848401111561262257612621612533565b5b61262d8482856125e4565b509392505050565b600082601f83011261264a57612649612302565b5b813561265a8482602086016125f3565b91505092915050565b6000806000806080858703121561267d5761267c612096565b5b600061268b878288016122ad565b945050602061269c878288016122ad565b93505060406126ad878288016121f8565b925050606085013567ffffffffffffffff8111156126ce576126cd61209b565b5b6126da87828801612635565b91505092959194509250565b600080604083850312156126fd576126fc612096565b5b600061270b858286016122ad565b925050602061271c858286016122ad565b9150509250929050565b7f4e487b7100000000000000000000000000000000000000000000000000000000600052602260045260246000fd5b6000600282049050600182168061276d57607f821691505b6020821081036127805761277f612726565b5b50919050565b7f4552433732313a20617070726f76616c20746f2063757272656e74206f776e6560008201527f7200000000000000000000000000000000000000000000000000000000000000602082015250565b60006127e2602183612130565b91506127ed82612786565b604082019050919050565b60006020820190508181036000830152612811816127d5565b9050919050565b7f4552433732313a20617070726f76652063616c6c6572206973206e6f7420746f60008201527f6b656e206f776e6572206f7220617070726f76656420666f7220616c6c000000602082015250565b6000612874603d83612130565b915061287f82612818565b604082019050919050565b600060208201905081810360008301526128a381612867565b9050919050565b600082905092915050565b60008190508160005260206000209050919050565b60006020601f8301049050919050565b600082821b905092915050565b6000600883026129177fffffffffffffffffffffffffffffffffffffffffffffffffffffffffffffffff826128da565b61292186836128da565b95508019841693508086168417925050509392505050565b6000819050919050565b600061295e612959612954846121d7565b612939565b6121d7565b9050919050565b6000819050919050565b61297883612943565b61298c61298482612965565b8484546128e7565b825550505050565b600090565b6129a1612994565b6129ac81848461296f565b505050565b5b818110156129d0576129c5600082612999565b6001810190506129b2565b5050565b601f821115612a15576129e6816128b5565b6129ef846128ca565b810160208510156129fe578190505b612a12612a0a856128ca565b8301826129b1565b50505b505050565b600082821c905092915050565b6000612a3860001984600802612a1a565b1980831691505092915050565b6000612a518383612a27565b9150826002028217905092915050565b612a6b83836128aa565b67ffffffffffffffff811115612a8457612a83612538565b5b612a8e8254612755565b612a998282856129d4565b6000601f831160018114612ac85760008415612ab6578287013590505b612ac08582612a45565b865550612b28565b601f198416612ad6866128b5565b60005b82811015612afe57848901358255600182019150602085019450602081019050612ad9565b86831015612b1b5784890135612b17601f891682612a27565b8355505b6001600288020188555050505b50505050505050565b7f4552433732313a2063616c6c6572206973206e6f7420746f6b656e206f776e6560008201527f72206f7220617070726f76656400000000000000000000000000000000000000602082015250565b6000612b8d602d83612130565b9150612b9882612b31565b604082019050919050565b60006020820190508181036000830152612bbc81612b80565b9050919050565b600081905092915050565b50565b6000612bde600083612bc3565b9150612be982612bce565b600082019050919050565b6000612bff82612bd1565b9150819050919050565b7f7769746864726177206661696c65640000000000000000000000000000000000600082015250565b6000612c3f600f83612130565b9150612c4a82612c09565b602082019050919050565b60006020820190508181036000830152612c6e81612c32565b9050919050565b7f4e487b7100000000000000000000000000000000000000000000000000000000600052601160045260246000fd5b6000612caf826121d7565b9150612cba836121d7565b9250828201905080821115612cd257612cd1612c75565b5b92915050565b6000612ce3826121d7565b91507fffffffffffffffffffffffffffffffffffffffffffffffffffffffffffffffff8203612d1557612d14612c75565b5b600182019050919050565b7f4552433732313a20696e76616c696420746f6b656e2049440000000000000000600082015250565b6000612d56601883612130565b9150612d6182612d20565b602082019050919050565b60006020820190508181036000830152612d8581612d49565b9050919050565b7f4552433732313a2061646472657373207a65726f206973206e6f74206120766160008201527f6c6964206f776e65720000000000000000000000000000000000000000000000602082015250565b6000612de8602983612130565b9150612df382612d8c565b604082019050919050565b60006020820190508181036000830152612e1781612ddb565b9050919050565b7f4d696e74696e67206e6f7420656e61626c656400000000000000000000000000600082015250565b6000612e54601383612130565b9150612e5f82612e1e565b602082019050919050565b60006020820190508181036000830152612e8381612e47565b9050919050565b6000612e95826121d7565b9150612ea0836121d7565b9250828202612eae816121d7565b91508282048414831517612ec557612ec4612c75565b5b5092915050565b7f77726f6e67206d696e742076616c756500000000000000000000000000000000600082015250565b6000612f02601083612130565b9150612f0d82612ecc565b602082019050919050565b60006020820190508181036000830152612f3181612ef5565b9050919050565b7f546f6b656e20646f6573206e6f74206578697374210000000000000000000000600082015250565b6000612f6e601583612130565b9150612f7982612f38565b602082019050919050565b60006020820190508181036000830152612f9d81612f61565b9050919050565b600081905092915050565b60008154612fbc81612755565b612fc68186612fa4565b94506001821660008114612fe15760018114612ff657613029565b60ff1983168652811515820286019350613029565b612fff856128b5565b60005b8381101561302157815481890152600182019150602081019050613002565b838801955050505b50505092915050565b600061303d82612125565b6130478185612fa4565b9350613057818560208601612141565b80840191505092915050565b7f2e6a736f6e000000000000000000000000000000000000000000000000000000600082015250565b6000613099600583612fa4565b91506130a482613063565b600582019050919050565b60006130bb8285612faf565b91506130c78284613032565b91506130d28261308c565b91508190509392505050565b7f4f776e61626c653a206e6577206f776e657220697320746865207a65726f206160008201527f6464726573730000000000000000000000000000000000000000000000000000602082015250565b600061313a602683612130565b9150613145826130de565b604082019050919050565b600060208201905081810360008301526131698161312d565b9050919050565b7f4f776e61626c653a2063616c6c6572206973206e6f7420746865206f776e6572600082015250565b60006131a6602083612130565b91506131b182613170565b602082019050919050565b600060208201905081810360008301526131d581613199565b9050919050565b7f4552433732313a207472616e736665722066726f6d20696e636f72726563742060008201527f6f776e6572000000000000000000000000000000000000000000000000000000602082015250565b6000613238602583612130565b9150613243826131dc565b604082019050919050565b600060208201905081810360008301526132678161322b565b9050919050565b7f4552433732313a207472616e7366657220746f20746865207a65726f2061646460008201527f7265737300000000000000000000000000000000000000000000000000000000602082015250565b60006132ca602483612130565b91506132d58261326e565b604082019050919050565b600060208201905081810360008301526132f9816132bd565b9050919050565b7f4552433732313a20617070726f766520746f2063616c6c657200000000000000600082015250565b6000613336601983612130565b915061334182613300565b602082019050919050565b6000602082019050818103600083015261336581613329565b9050919050565b7f4552433732313a207472616e7366657220746f206e6f6e20455243373231526560008201527f63656976657220696d706c656d656e7465720000000000000000000000000000602082015250565b60006133c8603283612130565b91506133d38261336c565b604082019050919050565b600060208201905081810360008301526133f7816133bb565b9050919050565b7f4e487b7100000000000000000000000000000000000000000000000000000000600052601260045260246000fd5b7f546f6b656e206e6f74207472616e7366657261626c6500000000000000000000600082015250565b6000613463601683612130565b915061346e8261342d565b602082019050919050565b6000602082019050818103600083015261349281613456565b9050919050565b600081519050919050565b600082825260208201905092915050565b60006134c082613499565b6134ca81856134a4565b93506134da818560208601612141565b6134e38161216b565b840191505092915050565b6000608082019050613503600083018761226c565b613510602083018661226c565b61351d60408301856123b4565b818103606083015261352f81846134b5565b905095945050505050565b600081519050613549816120cc565b92915050565b60006020828403121561356557613564612096565b5b60006135738482850161353a565b91505092915050565b6000613587826121d7565b9150613592836121d7565b92508282039050818111156135aa576135a9612c75565b5b92915050565b7f4552433732313a206d696e7420746f20746865207a65726f2061646472657373600082015250565b60006135e6602083612130565b91506135f1826135b0565b602082019050919050565b60006020820190508181036000830152613615816135d9565b9050919050565b7f4552433732313a20746f6b656e20616c7265616479206d696e74656400000000600082015250565b6000613652601c83612130565b915061365d8261361c565b602082019050919050565b6000602082019050818103600083015261368181613645565b905091905056fea2646970667358221220646c8b122445c8adacbff86d859cc4f870df1e723ad9abaf83b25141e6cac23064736f6c63430008110033",
  "linkReferences": {},
  "deployedLinkReferences": {}
}